:100000000C942A000C9447000C9447000C94470071
:100010000C9447000C9447000C9447000C94470044
:100020000C9447000C9447000C9447000C94470034
:100030000C9447000C9447000C9447000C94470024
:100040000C9447000C9447000C9447000C94470014
:100050000C94470011241FBECFE5D8E0DEBFCDBF12
:1000600010E0A0E6B0E0EEEAF5E002C005900D92E7
:10007000AA3AB107D9F720E0AAEAB0E001C01D9280
:10008000AA3AB207E1F70E941B020C94D5020C9425
:100090000000982F9770869586958695813021F17E
:1000A00030F08230F1F1833009F458C008956130A6
:1000B00069F44BB321E030E0B90102C0660F771F4D
:1000C0009A95E2F7CB01842B8BBB08954BB321E0CB
:1000D00030E0B90102C0660F771F9A95E2F7CB01B5
:1000E000809584238BBB0895613069F448B321E087
:1000F00030E0B90102C0660F771F9A95E2F7CB0195
:10010000842B88BB089548B321E030E0B90102C0D8
:10011000660F771F9A95E2F7CB018095842388BB01
:100120000895613069F445B321E030E0B90102C0BF
:10013000660F771F9A95E2F7CB01842B85BB089554
:1001400045B321E030E0B90102C0660F771F9A95F0
:10015000E2F7CB018095842385BB0895613069F473
:1001600042B321E030E0B90102C0660F771F9A95D3
:10017000E2F7CB01842B82BB089542B321E030E04B
:10018000B90102C0660F771F9A95E2F7CB018095FF
:10019000842382BB0895E1E6F0E080E041E050E096
:1001A000282F2770982F969596959695913009F15E
:1001B00030F09230C1F1933009F44FC067C09081A4
:1001C000913059F49AB3BA0102C0660F771F2A958D
:1001D000E2F79B01292B2ABB59C03AB3BA0102C0EE
:1001E000660F771F2A95E2F7962F909593239ABB77
:1001F0004DC09081913059F497B3BA0102C0660F97
:10020000771F2A95E2F79B01292B27BB3FC037B305
:10021000BA0102C0660F771F2A95E2F7962F9095D4
:10022000932397BB33C09081913059F494B3BA01B2
:1002300002C0660F771F2A95E2F79B01292B24BB8A
:1002400025C034B3BA0102C0660F771F2A95E2F7C2
:10025000962F9095932394BB19C09081913059F4B7
:1002600091B3BA0102C0660F771F2A95E2F79B018E
:10027000292B21BB0BC031B3BA0102C0660F771F17
:100280002A95E2F7962F9095932391BB8F5F329634
:10029000803209F085CF0895CF93C82F8BB38F702C
:1002A0009C2F907F892B8BBB60E089E00E944900E6
:1002B00060E08BE00E9449008FE891E00197F1F740
:1002C00000C0000061E08BE00E9449008FED9EE2DB
:1002D0000197F1F700C000008BB3282F2F7030E199
:1002E000C39FC0011124822B8BBB60E089E00E9478
:1002F000490060E08BE00E9449008FE891E001979F
:10030000F1F700C0000061E08BE00E9449008FE33C
:100310009FE10197F1F700C00000CF9108952FEF02
:1003200089EF90E0215080409040E1F700C000004C
:1003300060E08AE00E94490083E30E944C012FEFB5
:1003400082E597E0215080409040E1F700C0000036
:1003500082E30E944C0188E20E944C0186E00E94E8
:100360004C018CE00E944C0181E00E944C018FE323
:100370009FE10197F1F700C000000895CF93C82FC7
:100380008BB38F709C2F907F892B8BBB61E089E0B2
:100390000E94490060E08BE00E9449008FE891E0F4
:1003A0000197F1F700C0000061E08BE00E94490076
:1003B0008FE39FE10197F1F700C000008BB3282F76
:1003C0002F7030E1C39FC0011124822B8BBB61E0F1
:1003D00089E00E94490060E08BE00E9449008FE8BC
:1003E00091E00197F1F700C0000061E08BE00E940E
:1003F00049008FE39FE10197F1F700C00000CF9122
:1004000008950F931F93CF93FC018081882359F0A7
:100410008F01C0E00E94BE01CF5FF801EC0FF11D1B
:1004200080818111F7CFCF911F910F91089581E0C5
:100430000E944C010895CF93DF93CDB7DEB7E497C8
:100440000FB6F894DEBF0FBECDBF0E94CB000E9456
:100450008F010E947C021BAA1CAACE01C3960E9497
:100460006102C4988AEA0E9477024AE0BE016F5F87
:100470007F4F90E00E94A002CE0101960E940102EF
:100480002FEF81EE94E0215080409040E1F700C0D2
:1004900000000E94170280EA90E00E948A02CE01CA
:1004A00001960E948A0286EA90E00E948A022FEF5B
:1004B00081EE94E0215080409040E1F700C00000C0
:1004C000D1CFFC018081882319F0813051F008954B
:1004D00087B3806B87BBBE98AC9A80E18DB96E9A6A
:1004E0000895BE9A87B38F7487BB6E9A08958FB9AB
:1004F000779BFECF8FB108958AB188618AB980B5A4
:10050000866880BD87E689B910BC08955D9BFECFE3
:100510008CB908950F931F93CF93FC01808188239A
:1005200059F08F01C0E00E948602CF5FF801EC0F06
:10053000F11D80818111F7CFCF911F910F91089507
:10054000BB274A3031F4992322F4BDE2909581957E
:100550009F4F0C94AC02BB27FB015527AA27880F9D
:10056000991FAA1FA41710F0A41B83955051B9F727
:10057000A05DAA3308F0A95DA193009779F7B111A6
:10058000B1931192CB010C94C502DC01FC01672FE1
:1005900071917723E1F7329704C07C916D9370835A
:0E05A0006291AE17BF07C8F30895F894FFCF1D
:1005AE000000000000000000010101010101010135
:1005BE00010101010101010101010101010101011D
:1005CE00010101010101010101010101010101010D
:1005DE0001010101010101010101010101010101FD
:0A05EE0074656D703D000D0A0000F9
:00000001FF
