:100000000C942A000C943F000C943F000C943F0089
:100010000C943F000C943F000C943F000C943F0064
:100020000C943F000C943F000C943F000C943F0054
:100030000C943F000C943F000C943F000C943F0044
:100040000C943F000C943F000C943F000C943F0034
:100050000C943F0011241FBECFE5D8E0DEBFCDBF1A
:1000600010E0A0E6B0E0E8E1F9E002C005900D92F2
:10007000AC3AB107D9F70E9448020C948A040C9458
:10008000000080EC87B987E886B9089527B137B1B9
:10009000207E8F719927822B832B87B9369A349BC8
:1000A000FECF349A84B125B190E0922B089584B3A9
:1000B000886184BB8D9A89E683BFBB9A8EEF8CBF23
:1000C0000895AB9AAC9880E690E00E942E022FEF44
:1000D00081EE94E0215080409040E1F700C00000A4
:1000E0000E9444020895AB98AC980895982F977099
:1000F000869586958695813021F130F08230F1F138
:10010000833009F458C00895613069F44BB321E09D
:1001100030E0B90102C0660F771F9A95E2F7CB0174
:10012000842B8BBB08954BB321E030E0B90102C0B2
:10013000660F771F9A95E2F7CB01809584238BBBDE
:100140000895613069F448B321E030E0B90102C09C
:10015000660F771F9A95E2F7CB01842B88BB089531
:1001600048B321E030E0B90102C0660F771F9A95CD
:10017000E2F7CB018095842388BB0895613069F450
:1001800045B321E030E0B90102C0660F771F9A95B0
:10019000E2F7CB01842B85BB089545B321E030E025
:1001A000B90102C0660F771F9A95E2F7CB018095DF
:1001B000842385BB0895613069F442B321E030E0C7
:1001C000B90102C0660F771F9A95E2F7CB01842B25
:1001D00082BB089542B321E030E0B90102C0660F4E
:1001E000771F9A95E2F7CB018095842382BB08950F
:1001F000EDE6F0E080E041E050E0282F2770982FF6
:10020000969596959695913009F130F09230C1F11E
:10021000933009F44FC067C09081913059F49AB37C
:10022000BA0102C0660F771F2A95E2F79B01292BBE
:100230002ABB59C03AB3BA0102C0660F771F2A958C
:10024000E2F7962F909593239ABB4DC09081913001
:1002500059F497B3BA0102C0660F771F2A95E2F7E7
:100260009B01292B27BB3FC037B3BA0102C0660FE1
:10027000771F2A95E2F7962F9095932397BB33C06B
:100280009081913059F494B3BA0102C0660F771F80
:100290002A95E2F79B01292B24BB25C034B3BA0170
:1002A00002C0660F771F2A95E2F7962F9095932349
:1002B00094BB19C09081913059F491B3BA0102C036
:1002C000660F771F2A95E2F79B01292B21BB0BC0F4
:1002D00031B3BA0102C0660F771F2A95E2F7962F55
:1002E0009095932391BB8F5F3296803209F085CF32
:1002F0000895CF93C82F8BB38F709C2F907F892B3D
:100300008BBB60E089E00E94760060E080E10E94A3
:1003100076008FE891E00197F1F700C0000061E0FE
:1003200080E10E9476008FED9EE20197F1F700C018
:1003300000008BB3282F2F7030E1C39FC001112420
:10034000822B8BBB60E089E00E94760060E080E158
:100350000E9476008FE891E00197F1F700C000005D
:1003600061E080E10E9476008FE39FE10197F1F761
:1003700000C00000CF9108952FEF89EF90E0215049
:1003800080409040E1F700C0000060E08AE00E94F9
:10039000760083E30E9479012FEF82E597E02150F8
:1003A00080409040E1F700C0000082E30E947901A4
:1003B00088E20E94790186E00E9479018CE00E9427
:1003C000790181E00E9479018FE39FE10197F1F7C4
:1003D00000C000000895CF93C82F8BB38F709C2F5F
:1003E000907F892B8BBB61E089E00E94760060E002
:1003F00080E10E9476008FE891E00197F1F700C05C
:10040000000061E080E10E9476008FE39FE10197A8
:10041000F1F700C000008BB3282F2F7030E1C39F8D
:10042000C0011124822B8BBB61E089E00E94760021
:1004300060E080E10E9476008FE891E00197F1F79B
:1004400000C0000061E080E10E9476008FE39FE140
:100450000197F1F700C00000CF9108950F931F930B
:10046000CF93FC018081882359F08F01C0E00E9466
:10047000EB01CF5FF801EC0FF11D80818111F7CF07
:10048000CF911F910F91089581E00E947901089505
:10049000CF93DF93CDB7DEB7E2970FB6F894DEBF08
:1004A0000FBECDBF0E94F8000E9441000E94BC0117
:1004B0000E94B8020E94570081E00E94E50200E01D
:1004C00010E0E12CF12C81E090E00E944600BC019C
:1004D00080E090E00E949E0326E636E646E850E47F
:1004E0000E94FD020E946F03D62EC72E862F0E9407
:1004F000F8024AE0BE016F5F7F4F8D2D9C2D0E9458
:100500005504CE0101960E942E022FEF89EF90E054
:10051000215080409040E1F700C000000E9444025A
:1005200081E090E00E944600BC0180E090E00E94E3
:100530009E0326E636E646E850E40E94FD0220E0EF
:1005400030E044E052E40E942C04882354F00A3541
:10055000110524F40E94C9020AE510E00E9461001E
:10056000B2CF0E94D7020E9473000E2D1F2DABCF79
:1005700084B3886184BB8D9A87E893E197BD86BD7B
:1005800082E88FBD8BE18EBD8FEB90E09BBD8ABD75
:10059000089589EF90E09BBD8ABD2FEF83ED90E336
:1005A000215080409040E1F700C0000008958FE99D
:1005B00091E09BBD8ABD2FEF83ED90E321508040F9
:1005C0009040E1F700C000000895882319F08130C1
:1005D00049F0089587B3806B87BBBE988DB1806565
:1005E0008DB90895BE9A87B38F7487BB6E9A0895AC
:1005F0008FB9779BFECF8FB108950E9411030C94A1
:10060000F2030E94EB0358F00E94E40340F029F447
:100610005F3F29F00C94DB0351110C9426040C94D9
:10062000E1030E94030468F39923B1F3552391F386
:10063000951B550BBB27AA2762177307840738F051
:100640009F5F5F4F220F331F441FAA1FA9F335D0AE
:100650000E2E3AF0E0E832D091505040E695001C62
:10066000CAF72BD0FE2F29D0660F771F881FBB1F1C
:10067000261737074807AB07B0E809F0BB0B802DFA
:10068000BF01FF2793585F4F3AF09E3F510578F026
:100690000C94DB030C9426045F3FE4F3983ED4F300
:1006A000869577956795B795F7959F5FC9F7880FFA
:1006B000911D9695879597F90895E1E0660F771F4C
:1006C000881FBB1F621773078407BA0720F0621BDD
:1006D000730B840BBA0BEE1F88F7E09508950E9408
:1006E0000B0488F09F5798F0B92F9927B751B0F0B5
:1006F000E1F0660F771F881F991F1AF0BA95C9F7A6
:1007000014C0B13091F00E942504B1E008950C941A
:100710002504672F782F8827B85F39F0B93FCCF3CD
:10072000869577956795B395D9F73EF49095809522
:10073000709561957F4F8F4F9F4F0895E89409C042
:1007400097FB3EF490958095709561957F4F8F4F04
:100750009F4F9923A9F0F92F96E9BB279395F6951A
:10076000879577956795B795F111F8CFFAF4BB0F98
:1007700011F460FF1BC06F5F7F4F8F4F9F4F16C0FC
:10078000882311F096E911C0772321F09EE8872F86
:10079000762F05C0662371F096E8862F70E060E042
:1007A0002AF09A95660F771F881FDAF7880F9695BB
:1007B000879597F9089597F99F6780E870E060E062
:1007C00008959FEF80EC089500240A9416161706EA
:1007D00018060906089500240A9412161306140632
:1007E00005060895092E0394000C11F4882352F095
:1007F000BB0F40F4BF2B11F460FF04C06F5F7F4F4D
:100800008F4F9F4F089557FD9058440F551F59F033
:100810005F3F71F04795880F97FB991F61F09F3FED
:1008200079F087950895121613061406551FF2CF16
:100830004695F1DF08C0161617061806991FF1CF66
:1008400086957105610508940895E894BB2766278D
:100850007727CB0197F908950E94310408F48FEFB0
:100860000895990F0008550FAA0BE0E8FEEF161641
:100870001706E807F907C0F012161306E407F50794
:1008800098F0621B730B840B950B39F40A2661F008
:10089000232B242B252B21F408950A2609F4A140AB
:1008A000A6958FEF811D811D0895BB274A3031F435
:1008B000992322F4BDE2909581959F4F0C94610499
:1008C000BB27FB015527AA27880F991FAA1FA4172A
:1008D00010F0A41B83955051B9F7A05DAA3308F01E
:1008E000A95DA193009779F7B111B1931192CB0152
:1008F0000C947A04DC01FC01672F71917723E1F7F6
:10090000329704C07C916D9370836291AE17BF07DC
:08091000C8F30895F894FFCF2D
:100918004D6F746F72205374617274000000000090
:1009280000000000010101010101010101010101B3
:10093800010101010101010101010101010101019F
:10094800010101010101010101010101010101018F
:0C09580001010101010101010101010187
:00000001FF
